:100000000C942A000C9447000C9447000C94470071
:100010000C9447000C9447000C9447000C94470044
:100020000C9447000C9447000C94B3040C944700C4
:100030000C9447000C9447000C9447000C94470024
:100040000C9447000C9447000C9447000C94470014
:100050000C94470011241FBECFE5D8E0DEBFCDBF12
:1000600010E0A0E6B0E0EAE3FBE002C005900D92EC
:10007000A037B107D9F713E0A0E7B0E001C01D92A7
:10008000A839B107E1F70E9413050C949B050C9465
:100090000000DF93CF9300D0CDB7DEB789836A83AA
:1000A0008A81813009F070C089818830A0F4ABE387
:1000B000B0E0EBE3F0E08081482F8981282F30E029
:1000C00081E090E0022E02C0880F991F0A94E2F7A7
:1000D000842B8C93CEC089818830D0F08981803187
:1000E000B8F4A8E3B0E0E8E3F0E08081482F89812C
:1000F000882F90E09C012850304081E090E0022E53
:1001000002C0880F991F0A94E2F7842B8C93B1C028
:1001100089818031D0F089818831B8F4A5E3B0E0DD
:10012000E5E3F0E08081482F8981882F90E09C01F1
:100130002051304081E090E0022E02C0880F991FCC
:100140000A94E2F7842B8C9394C08981883108F457
:1001500090C08981803208F08CC0A2E3B0E0E2E375
:10016000F0E08081482F8981882F90E09C01285100
:10017000304081E090E0022E02C0880F991F0A945F
:10018000E2F7842B8C9375C08A81882309F071C0B3
:1001900089818830A8F4ABE3B0E0EBE3F0E0808144
:1001A000482F8981282F30E081E090E0022E02C0A4
:1001B000880F991F0A94E2F7809584238C9359C085
:1001C00089818830D8F089818031C0F4A8E3B0E01B
:1001D000E8E3F0E08081482F8981882F90E09C013E
:1001E0002850304081E090E0022E02C0880F991F15
:1001F0000A94E2F7809584238C933BC089818031F7
:10020000D8F089818831C0F4A5E3B0E0E5E3F0E0FF
:100210008081482F8981882F90E09C0120513040B7
:1002200081E090E0022E02C0880F991F0A94E2F745
:10023000809584238C931DC089818831D0F0898179
:100240008032B8F4A2E3B0E0E2E3F0E08081482F2E
:100250008981882F90E09C012851304081E090E016
:10026000022E02C0880F991F0A94E2F7809584231A
:100270008C930F900F90CF91DF910895DF93CF93E0
:1002800000D0CDB7DEB789838981883098F4E9E35F
:10029000F0E08081282F30E08981882F90E0A9014B
:1002A00002C0559547958A95E2F7CA01582F5170BB
:1002B0005A8350C089818830B8F089818031A0F498
:1002C000E6E3F0E08081282F30E08981882F90E0FC
:1002D0000897A90102C0559547958A95E2F7CA018A
:1002E000582F51705A8336C089818031B8F0898186
:1002F0008831A0F4E3E3F0E08081282F30E08981A9
:10030000882F90E04097A90102C0559547958A959E
:10031000E2F7CA01582F51705A831CC08981883175
:10032000B8F089818032A0F4E0E3F0E08081282FEA
:1003300030E08981882F90E04897A90102C0559547
:1003400047958A95E2F7CA01582F51705A8302C027
:1003500088E08A838A810F900F90CF91DF91089572
:10036000DF93CF9300D0CDB7DEB789836A838A81CC
:10037000882309F074C089818830A8F4AAE3B0E02A
:10038000EAE3F0E08081482F8981282F30E081E086
:1003900090E0022E02C0880F991F0A94E2F7809520
:1003A00084238C93CDC089818830D8F089818031B5
:1003B000C0F4A7E3B0E0E7E3F0E08081482F898153
:1003C000882F90E09C012850304081E090E0022E80
:1003D00002C0880F991F0A94E2F7809584238C93BA
:1003E000AFC089818031D8F089818831C0F4A4E31D
:1003F000B0E0E4E3F0E08081482F8981882F90E02D
:100400009C012051304081E090E0022E02C0880F14
:10041000991F0A94E2F7809584238C9391C0898177
:10042000883108F48DC08981803208F089C0A1E349
:10043000B0E0E1E3F0E08081482F8981882F90E0EF
:100440009C012851304081E090E0022E02C0880FCC
:10045000991F0A94E2F7809584238C9371C08A8156
:10046000813009F06DC089818830A0F4AAE3B0E042
:10047000EAE3F0E08081482F8981282F30E081E095
:1004800090E0022E02C0880F991F0A94E2F7842B95
:100490008C9356C089818830D0F089818031B8F43E
:1004A000A7E3B0E0E7E3F0E08081482F8981882F5F
:1004B00090E09C012850304081E090E0022E02C084
:1004C000880F991F0A94E2F7842B8C9339C0898195
:1004D0008031D0F089818831B8F4A4E3B0E0E4E35E
:1004E000F0E08081482F8981882F90E09C01205185
:1004F000304081E090E0022E02C0880F991F0A94DC
:10050000E2F7842B8C931CC089818831C8F08981E3
:100510008032B0F4A1E3B0E0E1E3F0E08081482F65
:100520008981882F90E09C012851304081E090E043
:10053000022E02C0880F991F0A94E2F7842B8C9335
:100540000F900F90CF91DF910895DF93CF93CDB7A8
:10055000DEB7A3E5B0E0E3E5F0E08081877B8C9334
:10056000A3E5B0E0E3E5F0E0808188608C93ECE502
:10057000F0E08AEF8083A3E5B0E0E3E5F0E080817E
:10058000887F8C93A3E5B0E0E3E5F0E080818260B2
:100590008C93CF91DF910895DF93CF93CDB7DEB7E2
:1005A000A3E5B0E0E3E5F0E08081887F8C93ECE5A3
:1005B000F0E01082CF91DF910895DF93CF9300D0C8
:1005C00000D000D0CDB7DEB78A837C836B838A816D
:1005D000282F30E03E832D838D819E8181309105CF
:1005E00059F02D813E812230310549F08D819E8167
:1005F000009739F4198205C081E0898302C082E046
:100600008983EB81FC818981808326960FB6F894DB
:10061000DEBF0FBECDBFCF91DF910895DF93CF93A3
:100620000F92CDB7DEB780917000882361F40E94ED
:10063000A5028091710027E933E0B9010E94DD0233
:1006400081E0898301C0198289810F90CF91DF9168
:100650000895DF93CF9300D000D0CDB7DEB7898364
:100660007B836A83E9E5F0E080818695882F90E0BE
:1006700081709070009739F4A9E5B0E0E9E5F0E009
:10068000808182608C938981843608F04FC0898193
:10069000882F90E0EA81FB812081880F991F880FC5
:1006A000991F880F991FFC01ED58FF4F2083898106
:1006B000882F90E0EA81FB812181880F991F880FA4
:1006C000991F880F991FFC01EC58FF4F20838981E7
:1006D000882F90E0EA81FB8122813381880F991F66
:1006E000880F991F0196880F991FFC01ED58FF4F45
:1006F000318320838981882F90E02091930330916A
:1007000094034091950350919603880F991F019689
:10071000880F991F880F991FFC01ED58FF4F208308
:1007200031834283538381E08C8301C01C828C819E
:100730000F900F900F900F90CF91DF910895DF935E
:10074000CF9300D00F92CDB7DEB78A838A81882FEE
:1007500090E0880F991F880F991F0196880F991FA5
:10076000FC01ED58FF4F80819181009709F44FC043
:100770008A81882F90E0880F991F880F991F880F12
:10078000991FFC01ED58FF4F10828A81882F90E05D
:10079000880F991F880F991F880F991FFC01EC582B
:1007A000FF4F10828A81882F90E0880F991F880F51
:1007B000991F0196880F991FFC01ED58FF4F118278
:1007C0001082198217C08981882F90E0880F991FA5
:1007D000880F991F0196880F991FFC01ED58FF4F54
:1007E00080819181009719F081E08B8311C089810C
:1007F0008F5F89838981843630F3A9E5B0E0E9E52C
:10080000F0E080818D7F8C9381E08B8301C01B821F
:100810008B810F900F900F90CF91DF910895EF9201
:10082000FF920F931F93DF93CF930F92CDB7DEB755
:10083000198272C0209193033091940340919503E3
:10084000509196038981882F90E0880F991F019617
:10085000880F991F880F991FFC01ED58FF4F808169
:100860009181A281B38179018A01E81AF90A0A0B00
:100870001B0B8981882F90E0880F991F880F991F83
:10088000880F991FFC01ED58FF4F8081282F30E021
:1008900040E050E0C801B7010E947905DC01CB01BE
:1008A0000097A105B105A9F58981882F90E0880FEF
:1008B000991F880F991F880F991FFC01EC58FF4F53
:1008C00080818823A9F48981882F90E0880F991F5F
:1008D000880F991F0196880F991FFC01ED58FF4F53
:1008E0000190F081E02D099589810E949F0311C03C
:1008F0008981882F90E0880F991F880F991F019692
:10090000880F991FFC01ED58FF4F0190F081E02DF9
:10091000099589818F5F89838981843608F48ACF1C
:1009200081E00F90CF91DF911F910F91FF90EF9099
:100930000895DF93CF930F92CDB7DEB7E9E5F0E0EE
:1009400080818695882F90E081709070009729F4BF
:100950000E94CC0281E0898301C0198289810F90B5
:10096000CF91DF9108951F920F920FB60F9211242D
:100970002F933F934F935F936F937F938F939F93A7
:10098000AF93BF93EF93FF93DF93CF93CDB7DEB7D2
:10099000809172008F5F80937200909172008091BD
:1009A00097039817B9F41092720080919303909175
:1009B0009403A0919503B09196030196A11DB11DDA
:1009C0008093930390939403A0939503B09396031D
:1009D0000E940F04CF91DF91FF91EF91BF91AF91F2
:1009E0009F918F917F916F915F914F913F912F9147
:1009F0000F900FBE0F901F901895DF93CF93CDB738
:100A0000DEB78CE061E00E944900CF91DF9108954C
:100A1000DF93CF93CDB7DEB78CE060E00E94490052
:100A2000CF91DF910895DF93CF93CDB7DEB76A976B
:100A30000FB6F894DEBF0FBECDBF8CE061E00E9420
:100A4000B0010E940E03CE0101969A8B898BE8E6D5
:100A5000F0E0FC8BEB8BF8E0FD8BEB89FC890080F0
:100A60008B899C8901969C8B8B8BE989FA89008202
:100A700089899A8901969A8B898B9D8991509D8B42
:100A8000ED89EE2351F7CE0109969F8B8E8BE0E620
:100A9000F0E0F98FE88FF8E0FA8FE88DF98D0080AB
:100AA000888D998D0196998F888FEE89FF890082B4
:100AB0008E899F8901969F8B8E8B9A8D91509A8FEC
:100AC000EA8DEE2351F785E09E012F5F3F4FB9017C
:100AD0000E9429039E01275F3F4F8BE0B9010E94CE
:100AE0002903AFE5B0E0EFE5F0E0808180688C930A
:100AF000FFCFA1E21A2EAA1BBB1BFD010DC0AA1F2E
:100B0000BB1FEE1FFF1FA217B307E407F50720F076
:100B1000A21BB30BE40BF50B661F771F881F991FF1
:100B20001A9469F760957095809590959B01AC013A
:0A0B3000BD01CF010895F894FFCF36
:100B3A0023010805000000001E01FD04000000005A
:00000001FF
